:100000000C94BB030C94FF030C94FF030C94FF03AC
:100010000C94FF030C94FF030C94FF030C94FF0358
:100020000C94FF030C94FF030C94F7260C94C9273F
:100030000C94FF030C94FF030C94FF030C94FF0338
:100040000C94FF030C94FF030C94FF030C94FF0328
:100050000C94FF030C947F210C94FF030C94FF037A
:100060000C94FF030C94FF030C94FF030C94FF0308
:100070000C94FF030C94FF030C94FF030C94FF03F8
:100080000C94F4090C94FF030C94FF030C94FF03ED
:100090000C949E0E0C94FF030C94FF030C94FF032E
:1000A0000C94FF030C94FF030C94FF038A0A8D0A3F
:1000B000900A930A960A990A9C0A9F0AA20A790F43
:1000C0007E0F860F8E0F910F990F9F0FA70F28108D
:1000D0002E1034103A10401046104B10501055108E
:1000E0005A105F10641069106F1035113B113F11E9
:1000F000421146114A114E11521157115B115F11F5
:10010000631166116A116E11721176117B116318F9
:10011000631896189618D618151A151A151AF8187D
:10012000151A9F199F19081A151A151A101AAC19C1
:10013000AC19AC19AC19AC19AC19AC19AC19AC1997
:10014000AC19AC19AC19AC19AC19AC19AC19BC1977
:10015000CC19D319DA19E419911A911AA41AA41A0C
:100160009A1AA41AA41AA41A911A911AA01AA41AD3
:10017000A41AA01A2E2850283B2950283B2992283F
:10018000B5283B290A291D2911100F0E0D0C0B0A49
:1001900009121314151607060504030201001B1C9F
:1001A0001D1E1F20083231302F2E2D363738393A98
:1001B0003B17343329282726253F4041423C3D3E0A
:1001C000352C2B2AFFFFFF24FF4344454647781078
:1001D0006810581048103810281018100410042007
:1001E00080007000600050004000300020001000CF
:1001F00000009000A000B000C000D800E000FFFFA9
:10020000FFFFFFFF88109810A810B810C810DC106E
:10021000FFFFFFFFFFFF664064305430443034304E
:1002200024303C402B4017406C205C204C203C206C
:100230002C201C201430023003407C208C209C2079
:10024000AC20BC20D620B430D230E03074308430C2
:100250009430A4309040A140B540C940DD4000003A
:10026000000000010101010101010101020202027D
:100270000202020202030303030303030304040450
:100280000404040505050505060606060607070716
:1002900007080808080909090A0A0A0A0B0B0B0CC7
:1002A0000C0C0D0D0D0E0E0F0F0F10101111111261
:1002B0001213131414151516161717181819191ADE
:1002C0001A1B1C1C1D1D1E1F1F202021222223243F
:1002D000252526272728292A2B2B2C2D2E2F2F307A
:1002E000313233343536363738393A3B3C3D3E3F90
:1002F0004041424344464748494A4B4C4D4F505178
:100300005253555657585A5B5C5E5F606263646631
:1003100067696A6C6D6E707173747678797B7C7EB8
:100320008081838486888A8B8D8F91929496989A07
:100330009B9D9FA1A3A5A7A9ABADAFB1B3B5B7B91D
:10034000BBBDBFC1C4C6C8CACCCFD1D3D6D8DADCF6
:10035000DFE1E4E6E8EBEDF0F2F5F7FAFCFF5455E7
:1003600056464748494A4B848586878889797A7BEF
:100370005C5D5E4E4F505152538C8D8E8F909181AB
:100380008283444535363738393A3B949596979869
:10039000999A8A8B4C4D3D3E3F404142439C9D9EE5
:1003A0009FA0A1A29293342425262728292A2BA492
:1003B000A5A6A7A8A9AAAB9B3C2C2D2E2F30313285
:1003C00033ACADAEAFB0B1B2B3A329001E001F0075
:1003D0002000210022002300240025002600270001
:1003E0002D002E002A002B0014001A000800150012
:1003F00017001C0018000C00120013002F00300022
:100400003100390004001600070009000A000B0043
:100410000D000E000F003300340028000000E10042
:1004200000001D001B00060019000500110010004F
:10043000360037003800E5000000E000E300E2008D
:1004400000000000000000002C0000000000E6009A
:100450000C5F0D5FE40035003A003B003C003D00BE
:100460003E003F0040004100420043004400450080
:100470004C003900010052000100010001000100A0
:10048000010049000100460047004800010001004A
:10049000500051004F000100010001000100010067
:1004A00001004A004B0001000100010001000100B1
:1004B0000100010001000100AA00A900A8004D00F0
:1004C0004E000100010001000100010001000100D7
:1004D0000100010001000100010001000100010014
:1004E0000100010001000100010001000100010004
:1004F00001000100010001000100010001000100F4
:1005000001000100010001000100010001000100E3
:1005100001000100010001000100010001000100D3
:1005200001000100010001000100010001000100C3
:1005300001000100010001000100010001000100B3
:1005400001000100010001000100010001000100A3
:100550000100010001000100010001000100010093
:100560000100010001000100010001000100010083
:10057000035F025F055F045F095F085F0100010020
:1005800001000100015F005F0100010001000100A6
:10059000075F065F0B5F0A5F0100010001000100B9
:1005A0000100010001000100010001000100010043
:1005B0000100010001000100010001000100010033
:1005C0000100010001000100010001000100010023
:1005D0000100010001000100010001000100010013
:1005E0000100010001000100010001000100010003
:1005F000010001000100010001000E035A00650026
:1006000061006C003600300000000E035A006500E7
:1006100061006C005000430000000403090409025B
:100620007400040100A0FA090400000103010100A4
:100630000921110100012240000705810308000A79
:100640000904010001030000000921110100012239
:1006500036000705820308000A09040200020300AD
:100660000000092111010001222200070583032057
:100670000001070504032000010904030001030031
:10068000000009211101000122390007058503201E
:1006900000011201100100000008EDFE6060010081
:1006A0000102000105010906A101050719E029E77A
:1006B0001500250195087501810205081901290514
:1006C00095057501910295017503910105071900C2
:1006D00029F71500250195F875018102C00660FF14
:1006E0000961A1010962150026FF009520750881A6
:1006F000020963150026FF00952075089102C005C8
:10070000010980A10185021601002603001A81005B
:100710002A8300751095018100C0050C0901A10113
:100720008503160100269C021A01002A9C027510FE
:1007300095018100C005010906A101050719E029FD
:10074000E71500250195087501810295017508815D
:100750000105081901290595057501910295017595
:100760000391010507190029FF150026FF009506D2
:1007700075088100C00011241FBECFEFDAE0DEBF94
:10078000CDBF04B603FE24C08091830490918404FD
:10079000A0918504B09186048730904BA740B04B60
:1007A000B9F410928304109284041092850410927C
:1007B000860414BE84B7877F84BF88E10FB6F8949F
:1007C00080936000109260000FBEE0E0F8E30995AE
:1007D00011E0A0E0B1E0E0E5F5E502C005900D9282
:1007E000AA3CB107D9F714E0AAECB1E001C01D9210
:1007F000A338B107E1F70E94B3230C94A62A0C9406
:100800000000DB01E82FF0E0EE0FFF1FE253FE4F88
:1008100094919C933196E4911196EC9311978A32BE
:1008200011F138F4803289F08432B9F0863199F5CB
:1008300007C08B3321F18D3341F1843361F519C049
:100840008091050180FF27C024C08091050184FFAD
:1008500022C0E85F1196EC9308958091050183FF13
:100860001AC0965F17C08091050183FF14C09C5F7A
:1008700011C08091050181FD0EC0985F0BC0809171
:10088000050184FD08C09A5005C08091050182FDD4
:1008900002C098509C930895853020F08FEFDA01C4
:1008A0008C9308956E30D0F7BEE08B9FF001112439
:1008B000E60FF11DE857FE4FE491DA01EC9308953D
:1008C00066E784E70E94EE0D66E784E70C94010E6C
:1008D000CF93DF931F92CDB7DEB7AE014F5F5F4F6F
:1008E0000E944C04E981F0E0EE50FD4F108210921E
:1008F000CC011092CD011092CE011092CF010F9039
:10090000DF91CF9108958091CB0181110FC081E0DB
:100910008093CB018DE0809391008FB7F89493E0A2
:10092000909399009DE0909398008FBF0895E1E720
:10093000F0E080818260808308958093D5010895DE
:100940008093D40108958091D0019091D101A0911C
:10095000D201B091D30180739927AA27BB2724E045
:10096000B695A795979587952A95D1F782309105E9
:10097000A105B10571F083309105A105B10569F0BC
:1009800040E00197A105B10511F060E008C06FEFEC
:1009900002C04FEF60E080E003C04FEF6FEF8FEFDA
:1009A0000C941C0D40E060E080E00C941C0D609104
:1009B000090170910A01809107010E94F90A962F9E
:1009C000672F482F892F0C941C0D5F926F927F9296
:1009D0008F929F92AF92BF92CF92DF92EF92FF924F
:1009E0000F931F93CF93DF931F92CDB7DEB7609124
:1009F000090170910A01809107010E94F90AA62E4F
:100A0000972E882E60910C0170910D018091070145
:100A10000E94F90A762E672E582E3FE1E32E31E030
:100A2000F32EB12CCC24C394D12C00E010E0AE0105
:100A30004F5F5F4F602F8B2D0E944C04898188345B
:100A4000C0F4F601002E02C0EE0FFF1F0A94E2F779
:100A5000D7012D913C91E223F32390E0EF2B21F479
:100A6000282D492D6A2D03C0252D462D672D0E9466
:100A7000E40C0F5F1F4F0E301105C9F6B394B2E0BE
:100A8000EB0EF11C85E0B812D0CF0F90DF91CF9123
:100A90001F910F91FF90EF90DF90CF90BF90AF909C
:100AA0009F908F907F906F905F900895DF92EF926C
:100AB000FF920F931F93CF93DF9300D0CDB7DEB794
:100AC00080910C0190E020910901821B91098038EE
:100AD000910514F09A9505C081382FEF92070CF418
:100AE000939597FD03969595879595958795D82E1F
:100AF00020910D0130E080910A01281B310937FF58
:100B000002C02D5F3F4F3595279535952795E22EED
:100B1000F090070100E010E0BE016F5F7F4F802F73
:100B20000E9401049A8192959F70609109019D9D98
:100B3000600D112470910A019E9D700D11248F2D5E
:100B40000E94F90A472F282FC8010E94E40C0F5F6A
:100B50001F4F0834110501F70F900F90DF91CF91CF
:100B60001F910F91FF90EF90DF9008958F929F92C9
:100B7000BF92CF92DF92EF92FF920F931F93CF938A
:100B8000DF931F92CDB7DEB7D82EF09009012091E8
:100B90000C0130E02F19310937FF02C02D5F3F4FA4
:100BA0003595279535952795C22EE0900A0120911D
:100BB0000D0130E02E19310937FF02C02D5F3F4F84
:100BC000A9015595479555954795B42E0E94ED2955
:100BD00068E470E00E9485298C01812C912C1127FA
:100BE000D11003C080169106C9F40E94ED298370CC
:100BF0006F2D8C9D600D112469830E94ED298370F7
:100C00007E2D8B9D700D11246981809107010E94BA
:100C1000F90A472F282FC4010E94E40C8FEF881A8D
:100C2000980AE8E48E169104D9F60F90DF91CF91DF
:100C30001F910F91FF90EF90DF90CF90BF909F900A
:100C40008F900895DF92EF92FF920F931F93CF93AF
:100C5000DF93D090D00102EF12E0C0E0D0E0FFE3DC
:100C6000EF2EF12CF80181918F01F4E08F9FC001EC
:100C70001124CA32D10551F0C334D10539F0209185
:100C8000050123FF09C0C434D10531F48091160356
:100C900024E0829FC00111248034910520F4B70123
:100CA000681B790B02C060E070E06D0D7FEF8091F2
:100CB00007010E94F90A472F282FCE010E94E40C59
:100CC0002196C834D10571F6DF91CF911F910F9114
:100CD000FF90EF90DF9008958F929F92AF92BF9216
:100CE000CF92DF92EF92FF920F931F93CF93DF93F8
:100CF00000D0CDB7DEB78090D00190900701A2EF71
:100D0000CA2EA2E0DA2E00E010E0BFE3AB2EB12C39
:100D1000F60121916F01F4E02F9F900111240A3216
:100D2000110551F00334110539F08091050183FF5D
:100D300009C00434110531F42091160384E0289F82
:100D4000900111242034310520F47501E21AF30AD0
:100D500002C0E12CF12CBE016F5F7F4F802F0E94FB
:100D600001046981680D6E0D7FEF892D0E94F90ADB
:100D7000472F282FC8010E94E40C0F5F1F4F083433
:100D8000110531F60F900F90DF91CF911F910F91C8
:100D9000FF90EF90DF90CF90BF90AF909F908F909B
:100DA00008958F929F92AF92BF92CF92DF92EF926F
:100DB000FF920F931F93CF93DF9300D0CDB7DEB791
:100DC0008090D0019090070112EFC12E12E0D12E39
:100DD00000E010E08FE3A82EB12CF60121916F0105
:100DE000F4E02F9F900111240A32110551F00334D1
:100DF000110539F08091050183FF09C00434110504
:100E000031F42091160384E0289F900111242034AE
:100E1000310520F47501E21AF30A02C0E12CF12C2D
:100E2000BE016F5F7F4F802F0E9401046A81680DB1
:100E30006E0D7FEF892D0E94F90A472F282FC801D8
:100E40000E94E40C0F5F1F4F0834110531F60F901C
:100E50000F90DF91CF911F910F91FF90EF90DF9056
:100E6000CF90BF90AF909F908F900895CF92DF92D8
:100E7000FF920F931F93CF93DF931F92CDB7DEB7EF
:100E8000F82E0E94ED2968E470E00E9485298C010B
:100E9000C12CD12C1127F11003C0C016D10681F44A
:100EA0000E94ED2989830E94ED296981782F809124
:100EB00007010E94F90A472F282FC6010E94E40C5F
:100EC0008FEFC81AD80AE8E4CE16D10421F70F90A4
:100ED000DF91CF911F910F91FF90DF90CF900895F8
:100EE0000F931F93CF93DF93082F862FBA010E9491
:100EF000F90AEB01182F0E3F49F4482F6D2F8C2F64
:100F0000DF91CF911F910F910C941C0D282F4D2F25
:100F1000802F90E00E94E40C0432E9F4212F4D2F41
:100F20006C2F8AE290E00E94E40C212F4D2F6C2F51
:100F300083E490E00E94E40C8091050183FF0BC0E4
:100F4000212F4D2F6C2F84E490E0DF91CF911F91E2
:100F50000F910C94E40CDF91CF911F910F910895A4
:100F6000809112018F3F61F09091D40191FF08C0F0
:100F700040910F0150911001609111010E94700782
:100F80008091700283FF0BC080911E018F3F11F191
:100F900040911B0150911C0160911D0119C082FFFD
:100FA0000BC080911A018F3FA9F040911701509119
:100FB0001801609119010CC081FF0CC080911601CD
:100FC0008F3F41F040911301509114016091150140
:100FD0000C9470070895FC01862F642F853010F063
:100FE00080830895AF010C944C04CF93DF93EC0100
:100FF0009881E5E0F1E0808190FB80F98083988121
:101000009695917090FB81F98083988192FB992746
:1010100090F990FB82F98083988193FB992790F94E
:1010200090FB83F9808398819295917090FB84F96D
:101030008083988195FB992790F990FB85F98083AF
:101040008981809306018A81809307018B81809337
:1010500008018C819D81AE818093090190930A01E2
:10106000A0930B018F819885A98580930C019093A3
:101070000D01A0930E018A859B85AC8580930F019D
:1010800090931001A09311014E856D8582E191E04E
:101090000E94EB072F8538894989209313013093EB
:1010A0001401409315014B896A8986E191E00E9401
:1010B000EB072C893D894E89209317013093180145
:1010C00040931901488D6F898AE191E00E94EB07F6
:1010D000298D3A8D4B8D20931B0130931C01409339
:1010E0001D014D8D6C8D8EE191E0DF91CF910C94BF
:1010F000EB0744E250E063E270E085E091E00C949D
:10110000FD2944E250E063E270E085E091E00C9458
:101110001B2AEFE1F1E0DC012D913D91CD012193FE
:101120003193B1E0E932FB07B1F70C948108CF931A
:10113000DF9378940E942B0E84E70E94940C86E73C
:101140000E94940CC0E0D0E0C731D10529F4809111
:10115000050180FD1CC027C0C333D10529F480914F
:10116000050181FD14C01FC0CE33D10529F4809143
:10117000050182FD0CC017C0C334D10529F480914C
:10118000050183FD10C00BC0C831D10561F0CE014F
:101190004997029740F0CE018197029720F061E0D5
:1011A000C332D10509F460E06170262F462F8C2FE1
:1011B0000E94360D2196C834D10531F666E784E7E2
:1011C0000E94010EE2EFF2E08FEF819393E0EA33A9
:1011D000F907D9F7DF91CF9108958091080190E048
:1011E00001968A30910514F089E090E0809308011F
:1011F0000C9481088091080190E0019797FF02C04C
:1012000080E090E08A30910514F089E090E08093CE
:1012100008010C9481088091070190E008968F3FA7
:10122000910519F014F08FEF90E0809307010C9472
:1012300081088091070190E0089797FF02C080E045
:1012400090E08F3F910519F014F08FEF90E08093BC
:1012500007010C9481088091090190E008968F3F66
:10126000910519F014F08FEF90E0809309010C9430
:1012700081088091090190E0089797FF02C080E003
:1012800090E08F3F910519F014F08FEF90E080937C
:1012900009010C94810880910A0190E008968F3F23
:1012A000910519F014F08FEF90E080930A010C94EF
:1012B000810880910A0190E0089797FF02C080E0C2
:1012C00090E08F3F910519F014F08FEF90E080933C
:1012D0000A010C94810880910C0190E008968F3FE0
:1012E000910519F014F08FEF90E080930C010C94AD
:1012F000810880910C0190E0089797FF02C080E080
:1013000090E08F3F910519F014F08FEF90E08093FB
:101310000C010C94810880910D0190E008968F3F9C
:10132000910519F014F08FEF90E080930D010C946B
:10133000810880910D0190E0089797FF02C080E03E
:1013400090E08F3F910519F014F08FEF90E08093BB
:101350000D010C9481080F931F93CF93DF93EB0142
:1013600023E0829FC00111248C01095B1F4FC8013B
:101370000E940D2A8883C80101960E940D2A898344
:10138000C80102960E940D2A8A83DF91CF911F9196
:101390000F9108950F931F93CF93DF9300D01F9267
:1013A000CDB7DEB700E010E0BE016F5F7F4F802F4A
:1013B0000E94AB09809107018B8369817A818B81BF
:1013C0000E94F90A472F282FC8010E94E40C0F5FE2
:1013D0001F4F0834110541F70F900F900F90DF91C8
:1013E000CF911F910F9108951F920F920FB60F92F8
:1013F00011240F931F932F933F934F935F936F93FA
:101400007F938F939F93AF93BF93EF93FF938091BD
:10141000CA01843120F48F5F8093CA019CC08091FF
:10142000D0019091D101A091D201B091D301019648
:10143000A11DB11D8093D0019093D101A093D20141
:10144000B093D3018091CC019091CD01A091CE01B8
:10145000B091CF018F3F2FEF9207A207B20759F04B
:101460000196A11DB11D8093CC019093CD01A09355
:10147000CE01B093CF01E2EFF2E080818F3F11F017
:101480008F5F8083319683E0EA33F807B1F74091AC
:1014900008014F3F19F40E94A3045DC08091D5015B
:1014A000882321F08091050185FD1EC05091060121
:1014B000511102C080E019C020EB34E0529FC001FE
:1014C000539F900D1124AA2797FDA095BA2F009144
:1014D000CC011091CD012091CE013091CF01801728
:1014E0009107A207B30730F781E0182F117009F0B8
:1014F00040E081E090910401491301C080E04093F5
:10150000040150E04930510500F5FA01EA5AFF4F55
:101510000C9499290E94D2041AC00E94D70417C0C3
:101520000E94E50414C00E94560511C00E94B60531
:101530000EC00E9422060BC00E946C0608C00E94CA
:10154000D10605C00E94360702C00E94CA091111C7
:1015500002C00E94B007FF91EF91BF91AF919F91A0
:101560008F917F916F915F914F913F912F911F913B
:101570000F910F900FBE0F901F901895EF92FF9252
:101580000F931F93CF93DF9300D0CDB7DEB7E32E39
:10159000F42EAE014F5F5F4F2A830E944C040981F5
:1015A0002A810834A0F483E0089F80011124095B9C
:1015B0001F4F622FC8010E942B2A6E2DC801019671
:1015C0000E942B2A6F2DC80102960E942B2A0F9091
:1015D0000F90DF91CF911F910F91FF90EF900895A1
:1015E0006091D0017091D1018091D2019091D3018D
:1015F0000895AF92BF92DF92EF92FF920F931F93E5
:10160000CF93DF93D82EF82F711103C0682F782F56
:101610007FC0E62EF12CC72FD0E0082F10E0C701C5
:101620006BE270E00E94712945ED46039001479FEF
:10163000300D11242E0D3F1D46E0429FC001439FF7
:10164000900D11244FEF50E0DA01AC1BBD0BA09FB1
:101650009001A19F300DB09F300D1124F32E8C9F6F
:10166000D0018D9FB00D9C9FB00D1124AB2FBB27D7
:101670005A01AA1ABB0AA09ED001A19EB00DB09E2D
:10168000B00D1124EB2F5A01A81AB90AAC9EC00163
:10169000AD9E900DBC9E900D1124892F9927481B5B
:1016A000590B409FE001419FD00D509FD00D112458
:1016B00062307105A9F03CF46115710571F061307B
:1016C0007105C1F014C06330710569F064307105B3
:1016D00071F4D32EFF2EED2F0DC0ED2DDD2E0AC09F
:1016E000E32FFD2E07C0E32FFD2CDB2E03C0EF2FD1
:1016F000D32EFB2EF0E0E25AFD4F6491ED2DF0E089
:10170000E25AFD4F7491EF2DF0E0E25AFD4F8491C3
:10171000DF91CF911F910F91FF90EF90DF90BF90DD
:10172000AF90089580E290E00E94152A8F31954491
:1017300051F482E290E00E940D2A91E0843009F099
:1017400090E0892F01C080E081700895CF93C82F69
:10175000882319F06FE175E402C06FEF7FEF80E23C
:1017600090E00E943D2ACC2311F064E001C06FEFAD
:1017700082E290E0CF910C942B2A50E0440F551F49
:101780009CE1699F400D511D11249CE8899F400DEB
:10179000511D1124CA01815E9E4F08950F931F931E
:1017A000CF93DF930E94BD0BEC010E940D2A082FFE
:1017B00010E0102F0027CE0101960E940D2A9801FB
:1017C000282BC901DF91CF911F910F9108950F939D
:1017D0001F93CF93DF9300D0CDB7DEB72A83398331
:1017E0000E94BD0B8C013981632F0E942B2A2A8114
:1017F000622FC80101960F900F90DF91CF911F913A
:101800000F910C942B2A1F93CF93DF93D0E0C0E06D
:1018100010E02FEF3FEF412F6C2F8D2F0E94E70B31
:101820001F5F1E30B1F7CF5FC53091F7DF5FD43057
:1018300071F7DF91CF911F9108951F93CF93DF939D
:10184000D82FC62F172F0E94920B882379F0D430FF
:1018500068F4153058F4CE3048F44C2F612F8D2F9A
:101860000E94CE0B8F3F2FEF920789F48EE0189FD6
:10187000F001112426E4D29FE00DF11D1124EC0F9C
:10188000F11DEE0FFF1FE653FC4F85919491DF9100
:10189000CF911F910895880F80935C0460935D043D
:1018A00040935E0488EF8093D6028091D6028F3FEA
:1018B00039F040E063E08CE594E00E94420EF5CF01
:1018C0000895FF920F931F93CF93DF938B01880F9F
:1018D00080935C04C0E0D0E088EFF82E8C2F8C5D04
:1018E00080935D04EEE5F4E0D801AC0FBD1F8D914F
:1018F000819384E0EE36F807D1F7F092D60280911A
:10190000D6028F3F39F040E062E18CE594E00E941E
:10191000420EF5CF6096C039D10501F7DF91CF9126
:101920001F910F91FF900895CF93DF93C82F4BE045
:101930006DEF0E944B0C40E06AE08C2F0E944B0C34
:101940008FE39CE90197F1F700C0000040E060E000
:101950008C2F0E944B0C40E061E08C2F0E944B0CBE
:1019600040E066E08C2F0E944B0C40E06DEF8C2F26
:101970000E944B0CD0E040E06D2F8C2F0E944B0C4E
:10198000DF5FD231C1F740E06D2F8C2F0E944B0CEE
:10199000DF5FD432C1F740E06D2F8C2F0E944B0CDB
:1019A000DF5FD43BC1F74BE06DEF8C2F0E944B0CF7
:1019B00041E06AE08C2F0E944B0C40E06DEF8C2FD1
:1019C000DF91CF910C944B0CCF93DF93883491052A
:1019D00080F58432910524F08497C1E0D0E002C004
:1019E000C0E0D0E0FC01EA55FC4FE49130E93C9FB7
:1019F000D0013D9FB00D1124A45CBC4FED01CE0F72
:101A0000D11DFE01B4976083FC01EE57FC4FE491B9
:101A1000BD016E0F711DFB01B4974083FC01E25ABA
:101A2000FC4F8491A80FB11D94972C9381E0809373
:101A3000FB01DF91CF910895FF920F931F93CF93F6
:101A4000DF93182F062FF42EC0E0D0E02F2D402F6B
:101A5000612FCE010E94E40C2196C834D105B1F764
:101A6000DF91CF911F910F91FF900895FF920F93F7
:101A70001F93CF93DF93843218F0845291E001C01A
:101A800090E0823118F0825171E001C070E036E0E0
:101A9000839FF0011124EA5CFE4FA0815181F28006
:101AA000C381D4813581892F90E0B0E0E72FF0E049
:101AB0008D010E0F1F1F662399F062E1689FD00110
:101AC000699FB00D1124A00FB11FA952BE4F61E054
:101AD00070E001C0660F5A95EAF75C91562B13C06F
:101AE00062E1689FD001699FB00D1124A00FB11F62
:101AF000A952BE4F61E070E001C0660F5A95EAF747
:101B000060955C9156235C936F2D70E06E0F7F1F84
:101B10004423A1F042E1489FD001499FB00D112418
:101B2000A60FB71FA952BE4F41E050E00C2E01C0D6
:101B3000440F0A94EAF75C91542B14C042E1489F89
:101B4000D001499FB00D1124A60FB71FA952BE4F57
:101B500041E050E00C2E01C0440F0A94EAF7409592
:101B60005C9154235C934D2F50E02223B9F0E40F95
:101B7000F51F22E1289FD001299FB00D1124AE0F3F
:101B8000BF1FA952BE4F81E090E0032E01C0880F15
:101B90000A94EAF79C91982B9C9317C04E0F5F1FF5
:101BA00022E1289FF001299FF00D1124E40FF51F79
:101BB000E952FE4F81E090E0032E01C0880F0A94A5
:101BC000EAF7809590819823908381E08093D601F5
:101BD000DF91CF911F910F91FF900895CF93C62F62
:101BE0009091FB01992349F06CE373E00E94610C32
:101BF0006CEC73E08C2F0E94610C1092FB01CF9172
:101C00000895DF92EF92FF920F931F93CF93DF938C
:101C1000D82EE62E8091D6018823A9F007ED11E099
:101C2000C9EED1E0F12CF80141918F016F2D8D2D7E
:101C30000E944B0C49916F2D8E2D0E944B0CF394FA
:101C4000F2E1FF12F0CFDF91CF911F910F91FF9042
:101C5000EF90DF9008951092D5028FEF8093D60217
:101C60001092D7021092B9008CE08093B80085E002
:101C70008093BC0008959091D5029D7F81E009F08A
:101C800080E008951F93CF93DF9300D01F92CDB7CC
:101C9000DEB7182F653108F049C04A8369839B83FA
:101CA0000E943B0E4A8169819B81811105C085E0BC
:101CB0008A95F1F70000F1CF4093D702E12FF92F79
:101CC000AAEDB2E070E0CD018A5D924086179707D9
:101CD0001CF481918D93F7CF70933B0360933A038B
:101CE0001092D9021092D8028091D5028230B1F4BC
:101CF00081E08093D5028091D8029091D9029C0115
:101D00002F5F3F4F3093D9022093D802FC01E65257
:101D1000FD4F80818093BB0085E804C081E0809303
:101D2000D50285EA8093BC0080E001C081E00F907D
:101D30000F900F90DF91CF911F9108951F920F92F6
:101D40000FB60F9211242F933F934F938F939F932E
:101D5000EF93FF938091B900887F883239F180F446
:101D6000803109F49FC030F4882309F49FC0883083
:101D7000E9F0A3C08831B9F0803209F480C09DC079
:101D8000803491F138F4803309F479C0883309F450
:101D900076C093C08035A9F1883509F455C08834E0
:101DA00009F08BC06CC083E08093D5022091D802EB
:101DB0003091D90280913A0390913B03281739075B
:101DC0000CF053C08091D8029091D9029C012F5FF2
:101DD0003F4F3093D9022093D802FC01E652FD4FC9
:101DE00080818093BB002BC084E08093D5028091DA
:101DF000EE029091EF0201972091F0023091F102F2
:101E000016C08091F0029091F1029C012F5F3F4F2C
:101E10003093F1022093F0024091BB00FC01EF539C
:101E2000FD4F40838091EE029091EF0201972817B9
:101E300039072CF488EF8093D60285EC3CC088EFFC
:101E40008093D60285E837C08091F0029091F1022C
:101E50009C012F5F3F4F3093F1022093F0022091BD
:101E6000BB00FC01EF53FD4F20838091D7028823F4
:101E700011F08FEF0BC01092D5028FEF10C0809140
:101E8000D702882339F08091B900887F8093D602E9
:101E900085EA11C01092D5028091B900887F8093A5
:101EA000D60208C082E08093D50207C01092D60205
:101EB0001092D50285E98093BC00FF91EF919F912C
:101EC0008F914F913F912F910F900FBE0F901F90C8
:101ED00018951F93CF93DF93EC01162F488150E0A4
:101EE000FA013197E830F105C8F5E15AFF4F0C943B
:101EF000992984E090E09A83898332C04B816A817A
:101F000089810E94CE0B9D838C832AC02C813D81C8
:101F10004B816A8189810E94E70B22C00E94030CD9
:101F20001FC001960E94F5070E9481080E94970831
:101F300017C001960E9489080E94810811C02B8158
:101F40003C814D816A8189810E94BE0A09C00E943C
:101F5000F00A6A837B838C839D8302C08FEF888322
:101F6000612FCE01DF91CF911F910C94A9220E9485
:101F700015158FE19EE40197F1F700C000000E9463
:101F8000151580E00E94C11580FF0CC084E00E94FE
:101F9000C11587FF07C080E00E94A60B0E94FE20AB
:101FA0000C94A52108950F931F93CF93DF931F9255
:101FB000CDB7DEB70E94B70F0E94920B882319F0AD
:101FC0000E9479081CC00E94810800E010E00E9475
:101FD000ED2989830E94ED29382F3F7729814FEF22
:101FE000612F802F0E94BE0A1F5F1E3081F70F5F96
:101FF000053061F70E94030C81E00E94A60B0E944D
:1020000097080E9483040E9497040F90DF91CF915C
:102010001F910F910C94C5140E9460040C94C61477
:102020000F931F93CF93DF938C01EB018A81882359
:1020300021F0688189810E946804F801FF55EE3023
:10204000F10508F05BC0E959FF4F8A810C9499298A
:10205000882309F45BC00E940B0958C0882309F447
:1020600055C00E94190952C0882309F44FC00E942C
:10207000ED084CC0882309F449C00E94FA0846C004
:10208000882309F443C00E942B0940C08823F1F142
:102090000E9439093BC08823C9F10E944B0936C010
:1020A0008823A1F10E94590929C0882379F10E944F
:1020B0006B092CC0882351F10E94790927C088231D
:1020C00029F10E948B0922C0882301F10E949909FD
:1020D00015C0882311F081E005C081E00CC0882381
:1020E00049F082E00E94DF1E43E062E081E00E944E
:1020F00024120CC082E00E94FA1EF6CFBE01C80175
:10210000DF91CF911F910F910C94E01080E0DF914F
:10211000CF911F910F9108959C013F502F3F3105A2
:1021200009F058F49C013327A90141535109423069
:10213000510518F4C901986F0895FC01EE0FFF1FB7
:10214000E650FA4F859194910895CF93DF93EC0177
:102150008FEC860F823038F58A818823D9F061337D
:1021600011F481E001C082E00E94DF1E8D81982F72
:10217000907F61F080FD0AC082958F7090E0039798
:1021800094F083E0DF91CF910C94191F8D818F70B3
:102190008D8309C0613311F481E001C082E0DF91D9
:1021A000CF910C94FA1EDF91CF9108950C94A00466
:1021B00081E00C949D0480E00C949D0481E00895DE
:1021C00081E008950E947F1A2FEF84E39CE0215064
:1021D00080409040E1F700C000000C94A5210F93CF
:1021E0001F93CF93DF938C01FC01C081D181CE017D
:1021F0000E946B1FBE010E941D0CEC01B8010E94E1
:102200001010882309F41AC1B801CE010E94791474
:10221000882309F413C1C531FCE5DF0708F0A3C02A
:10222000C2308CE5D80708F478C0F8018281882391
:1022300009F47FC00E940421811102C00E94E420A1
:102240000E94172190E09093750480937404FE011E
:10225000E350FC45E231F10520F4EB58FF4F0C94BC
:10226000992980917404816003C080917404826014
:10227000809374044BC0809174048460F9CF809182
:10228000740413C0809174048061F2CF809174044F
:102290008062EECF809174048064EACF80917404F0
:1022A0008068E6CF8091740484608860E1CF80917B
:1022B00074048E7FDDCF809174048D7FD9CF80919F
:1022C00074048B7FD5CF8091740413C08091740403
:1022D0008F7ECECF809174048F7DCACF809174049D
:1022E0008F7BC6CF809174048F77C2CF80917404A6
:1022F0008B7F877FBDCF9091740497FB882780F9EF
:1023000021E0822780FB97F99093740480917404F4
:102310000E941B210E947F1A91C0C115ECE5DE07C7
:1023200079F0C130DC45A1F081E080930002809318
:102330000102C801DF91CF911F910F910C94DE1023
:10234000F8018281882309F479C00E94E21076C0E6
:10235000F8018281882309F471C080919D02816017
:1023600080939D026BC0C73C8CE5D80739F5F80116
:102370008281882361F0109201020E944A21909389
:10238000FF018093FE0180E20E94181857C08091DF
:10239000010281110FC08091FE019091FF010E9406
:1023A0005621883C910530F487E20E94011787E2AC
:1023B0000E94C91780E20E941F1840C0C83CECE58B
:1023C000DE0738F5C63CDC4509F0AECFF801828166
:1023D000882351F0109200020E944A219093FD013F
:1023E0008093FC0182E0D0CF8091000281110FC068
:1023F0008091FC019091FD010E945621883C91053D
:1024000030F486E20E94011786E20E94C91782E03A
:10241000D2CFCA3C8CE5D80731F4F80182818823F9
:1024200069F080E009C0CB3CDC4509F07DCFF801C4
:102430008281882319F082E00E94742480E0DF9179
:10244000CF911F910F910895CF92DF92EF92FF925B
:102450000F931F9301E010E020E030E06801790164
:1024600004C0CC0CDD1CEE1CFF1C8A95D2F7D701F2
:10247000C60104C0000F111F221F331F6A95D2F737
:10248000802B912BA22BB32B009170021091710223
:102490002091720230917302082319232A233B23CF
:1024A000081719072A073B0749F4842F1F910F913A
:1024B000FF90EF90DF90CF900C94DF1E842F1F9140
:1024C0000F91FF90EF90DF90CF900C94FA1E0C9438
:1024D000D30F0C940C100C94D61080E090E008956B
:1024E0000E941D0C0E94FC13811520E49207B0F598
:1024F000811540E3940708F0DBC0803E9105D8F4D5
:10250000803C910508F069C0883A910578F4853AD5
:10251000910508F065C08130910509F46CC108F49B
:1025200023C18430910508F066C11EC18D3B910521
:1025300008F461C019C18F3F910509F048F4803F4C
:10254000910508F0AFC0883E910508F454C10CC154
:10255000811520E2920708F0A7C00895811544E58F
:102560009407D8F4811523E5920708F0DCC08115A3
:1025700041E5940740F4811520E5920708F0A2C0D8
:102580009F70906A0895811542E5940708F0B6C0DF
:10259000982F8827816F906A0895811526E5920704
:1025A00050F4811545E5940708F0D2C0982F88278C
:1025B000846F906A0895811528E5920708F4D4C0C5
:1025C000811549E5940708F4C8C09C0130562115CF
:1025D000304208F0C9C09F71C5C0805C910965C0D8
:1025E000853A910509F4C3C0863A910509F4C2C041
:1025F00083E890E40895883A910509F4BEC0893AC9
:10260000910509F4BDC08A3A910509F4BCC08B3A22
:10261000910509F4BBC08C3A910509F4BAC08B3B13
:10262000910509F4B9C08C3B910509F4B8C08D3A05
:10263000910509F4B7C0803B910509F4B6C08E3A04
:10264000910509F4B5C08F3A910509F4B4C0813BF6
:10265000910509F4B3C0823B910509F4B2C0833BF4
:10266000910509F4B1C0843B910509F4B0C0853BE4
:10267000910509F4AFC0863B910509F4AEC0873BD4
:10268000910509F4ADC0883B910509F4ACC0893BC4
:10269000910509F4ABC08A3B910509F0AAC08AE212
:1026A00096E40895906508959F700E948C10089597
:1026B0009C01332793FF03C0C901986C0895C90199
:1026C000906C0895482F437021E030E002C0220F43
:1026D000331F4A95E2F73C68AC0174E05695479584
:1026E0007A95E1F74370342B8F708695869540E29A
:1026F000849FC0011124822B932B0895282F2695A7
:10270000269540E2249F90011124AC014370552787
:1027100081E090E002C0880F991F4A95E2F7822B72
:10272000932B9C680895282F2695269540E2249F98
:1027300090011124AC014370552781E090E002C064
:10274000880F991F4A95E2F7822B932B9A68089578
:102750008F719927982F882705C0982F8827806F19
:10276000906A08959062089580E090E0089581E86D
:1027700090E4089582E890E4089582EE94E4089548
:1027800089EE94E408958AEE94E4089585EB94E448
:10279000089586EB94E4089583EB94E4089584EB24
:1027A00094E4089587EB94E408958CEC94E4089500
:1027B0008DEC94E4089583E895E408958AE895E41F
:1027C000089582E995E4089584E995E4089581E205
:1027D00096E4089583E296E4089584E296E40895E9
:1027E00085E296E4089586E296E4089587E296E409
:1027F000089580E094E408958238910549F1B0F499
:102800008133910509F459C048F48932910509F4DE
:102810004FC08A32910509F455C00895853391055A
:1028200009F441C08933910599F00895833E9105DB
:1028300031F138F4803E910591F0823E9105A9F086
:102840000895863E910501F1873E910539F108957D
:102850002091740420FD3BC021FD39C00895809172
:10286000740480FF34C089E341C08091740482FF06
:1028700032C08091740484FF2CC080E037C0809106
:10288000740482FD28C0F5CF8091740483FF25C0B5
:102890008091740484FDF1CF87EE28C08091740488
:1028A00083FD1BC0F5CF8091740485FF18C019C04B
:1028B0008091740485FF15C012C08091740486FF56
:1028C00012C013C08091740486FF0FC00CC080EE4C
:1028D0000DC083EE0BC082EE09C086EE07C085E313
:1028E00005C089E203C081E301C08AE290E0089557
:1028F0000895CF93DF93EC01FB018281811102C027
:1029000081E040C080910F02811125C0C531DC45B6
:10291000B9F70E94781481E080930F020E944A2147
:1029200090930E0280930D02109202021092040204
:1029300010920302109206021092050210920802F1
:102940001092070210920A021092090210920C02D1
:1029500010920B0216C080910D0290910E020E94FF
:102960005621883C910560F680910202E82FF0E044
:10297000EE0FFF1FED5FFD4FD183C0838F5F80930C
:10298000020280E0DF91CF9108950895089585B700
:10299000806885BF85B7806885BFA0EBB1E021E086
:1029A00030E08D91E82FE295EF70F0E041A18F705B
:1029B000B90102C0660F771F8A95E2F7CB01962F07
:1029C0009095492341A392A1982B92A371E0A53B36
:1029D000B70739F7A2EAB1E021E030E08D91E82FA6
:1029E000E295EF70F0E041A18F70B90102C0660F6F
:1029F000771F8A95E2F7CB01962F9095492341A343
:102A000092A1982B92A371E0A03BB70739F7EAE1B6
:102A1000F2E0A0E1B2E0119211921D921D9282E0CB
:102A2000E432F807C1F70C9467124F925F927F92DD
:102A30008F929F92AF92BF92CF92DF92EF92FF92CE
:102A40000F931F93CF93DF9300EB11E0C0E1D2E02F
:102A5000EE24E394F12C99249394BE01A880B980CC
:102A600019821882D8012D918D01E22FE295EF7025
:102A7000F0E081A12F70A70102C0440F551F2A95D5
:102A8000E2F79A01842B81A382A1842E809488216D
:102A900082A350EA5A95F1F742EA442E41E0542EBF
:102AA00080E090E0D2014D912D01C42EC2943FE010
:102AB000C322D12CD60190967C90C880D9804F70CB
:102AC000D70102C0AA0FBB1F4A95E2F77A2241F450
:102AD000A701082E02C0440F551F0A94E2F702C056
:102AE00040E050E04C295D295983488301968E309F
:102AF0009105C1F681A1882181A382A1822B82A3A5
:102B00002296FB0180819181A816B90641F090922E
:102B100024020E944A219093260280932502F1E02C
:102B2000053B1F0709F099CF809124028823B1F05B
:102B300080912502909126020E945621069770F0FE
:102B4000E0E1F2E0AAE1B2E0819191918D939D9351
:102B500042E0EA31F407C1F7109224020E946912A0
:102B600081E0DF91CF911F910F91FF90EF90DF9067
:102B7000CF90BF90AF909F908F907F905F904F903D
:102B80000895E82FF0E0EE0FFF1FE65EFD4F808115
:102B900091810895089590932C0280932B020895BB
:102BA000E0912B02F0912C02309721F00190F081FE
:102BB000E02D099480E00895E0912B02F0912C0221
:102BC000309721F00280F381E02D0994089520913F
:102BD000290230912A028217930771F090932A02FA
:102BE00080932902E0912B02F0912C02309721F082
:102BF0000680F781E02D09940895209127023091F5
:102C000028028217930771F090932802809327027D
:102C1000E0912B02F0912C02309721F00084F18595
:102C2000E02D0994089508950C9413160E944121F3
:102C30000E94C7140C94C8215F926F927F928F926A
:102C40009F92AF92BF92CF92DF92EF92FF920F933B
:102C50001F93CF93DF93CDB7DEB72A970FB6F894C3
:102C6000DEBF0FBECDBF0E9415159EE2C92E92E0B9
:102C7000D92E00E010E0AA24A394B12C502E802F6E
:102C80000E94C1153C01F601E190F1906F01E82628
:102C9000F926E114F104B1F40F5F1F4F053011055F
:102CA00069F78FEF89838A831B820E944A218160A2
:102CB000782F9D838C8349815A816B818D810E94FD
:102CC000D3163AC080919D0281FD0E94CA1520E072
:102CD00030E04501022E02C0880C991C0A94E2F7EC
:102CE000C4018E219F21892B09F12E835F826820E8
:102CF000792081E0672809F480E088870E944A21D2
:102D00008160782F9A8789874E815F8168858A855F
:102D10000E94D316F801EE0FFF1FE25DFD4F808188
:102D20009181882599259183808306C02F5F3F4F2D
:102D30002E30310571F6B0CF10912D020E94D015C2
:102D40001817D9F00E94D01580932D022A960FB63D
:102D5000F894DEBF0FBECDBFDF91CF911F910F91D1
:102D6000FF90EF90DF90CF90BF90AF909F908F90AB
:102D70007F906F905F900C946B122A960FB6F89428
:102D8000DEBF0FBECDBFDF91CF911F910F91FF909E
:102D9000EF90DF90CF90BF90AF909F908F907F90FB
:102DA0006F905F900895CF93DF93CDB7DEB72B97E9
:102DB0000FB6F894DEBF0FBECDBF4F83588769872B
:102DC0007A878B87DE01119686E0FD0111928A9544
:102DD000E9F785E0FE01379601900D928A95E1F7BB
:102DE00049815A816B817C818D819E810E94491D20
:102DF0002B960FB6F894DEBF0FBECDBFDF91CF91FB
:102E00000895882309F4C4C0823859F40E94D0156B
:102E100081FDBEC089E30E94EB1F0E94B52089E3BB
:102E20000CC0833871F40E94D01580FDB1C083E5D9
:102E30000E94EB1F0E94B52083E50E942B200C947A
:102E4000B520843859F40E94D01582FDA1C087E4D2
:102E50000E94EB1F0E94B52087E4EFCF9CEF980FF4
:102E6000913A18F40E94EB1FEACF90E2980F983045
:102E700050F4877091E001C0990F8A95EAF7892F85
:102E80000E946C20DCCF9BE5980F933070F4853A5C
:102E900029F0863A31F482E890E005C081E890E0BC
:102EA00002C083E890E00C94E71598E5980F9531FF
:102EB00008F06EC0883A61F1893A69F18A3A71F195
:102EC0008B3A79F18C3A81F18B3B89F18C3B91F112
:102ED0008D3A99F1803BA1F18E3AA9F18F3AB1F187
:102EE000813BB9F1823BC1F1833BC9F1843BD1F114
:102EF000853BD9F1863BE1F1873BE9F1883BF1F174
:102F0000893BF9F18A3B09F03FC08AE292E03EC07A
:102F100082EE90E03BC089EE90E038C08AEE90E00F
:102F200035C085EB90E032C086EB90E02FC083EB9C
:102F300090E02CC084EB90E029C087EB90E026C0A5
:102F40008CEC90E023C08DEC90E020C083E891E011
:102F50001DC08AE891E01AC082E991E017C084E9B7
:102F600091E014C081E292E011C083E292E00EC0D1
:102F700084E292E00BC085E292E008C086E292E033
:102F800005C087E292E002C080E090E00C94FD155D
:102F90000895882309F44BC0823859F40E94D01553
:102FA00081FF45C089E30E94EB1F0E94B52089E3A1
:102FB0000CC0833871F40E94D01580FF38C083E5BF
:102FC0000E94EB1F0E94B52083E50E942B200C94E9
:102FD000B520843859F40E94D01582FF28C087E4B8
:102FE0000E94EB1F0E94B52087E4EFCF9CEF980F63
:102FF000913A58F390E2980F983050F4877091E02E
:1030000001C0990F8A95EAF7892F0E947220DFCFBD
:103010009BE5980F933020F480E090E00C94E71546
:10302000885A853120F480E090E00C94FD150895D5
:10303000882321F00E946C200C94B52008958823E9
:1030400021F00E9472200C94B52008958F929F92D7
:10305000AF92BF92CF92DF92EF92FF920F931F93A6
:10306000CF93DF931F92CDB7DEB74C01A62E472F2B
:10307000FC01E580E2948FE0E822F280FF2021F05D
:1030800079830E948920498149830E94E41F4981F4
:10309000882381F0FF2071F080E28A0D883050F0A3
:1030A00082E00E94CD1F0E94E41FBB24B394B82687
:1030B000498101C0B12CE42FE295EF70F0E0E957AF
:1030C000FF4F0C949929842F807F142F1F70882321
:1030D00011F01295107FFF2099F0112309F48EC191
:1030E00080E28A0D883010F0A11004C0812F0E9468
:1030F0006C2003C0812F0E947C200E94B5207EC1DD
:103100008A2D0E94C917112309F48FC180E28A0D0C
:10311000883010F0A11004C0812F0E94722003C0DB
:10312000812F0E9482200E94B5207FC1242F207F02
:10313000842F8F70203211F08295807FAA2021F099
:10314000F1E0AF16B1F021C0FF2041F0EE2039F1DF
:1031500091E0E91224C00E949C2067C1EE2021F07A
:10316000E1E0EE1609F461C189830E949F20898104
:1031700000C1FF2029F0F5E0FE1508F456C10FC08C
:1031800094E09E1508F451C1F4C0FF2059F0EE20E0
:1031900031F0F401958190FF31C19F7095830E94B9
:1031A000181843C1EE2009F4E4C02EC1242F26953F
:1031B0002695237030E02115310521F021303105AD
:1031C00061F033C1FF2021F08A2D942F937002C04B
:1031D00080E090E00E94E71528C1FF2021F08A2DB1
:1031E000942F937002C080E090E00E94FD151DC1F5
:1031F000842F837009F04EC0F11017C12A2D22953B
:1032000026952770220F220F8A2D8F70C82ED12C61
:10321000E12CF12C022E04C0CC0CDD1CEE1CFF1C9A
:103220000A94D2F7A4FE10C06FE070E080E090E056
:1032300004C0660F771F881F991F2A95D2F76095E3
:1032400070958095909503C060E070E0CB01242FCD
:1032500026952695237030E02230310569F0233021
:10326000310589F06C297D298E299F29213031056E
:1032700071F00E949A1ED9C06C297D298E299F2940
:103280000E94AC1ED2C00E949A1EC701B6010E94C5
:10329000881ECBC0FF2019F0842F817001C0869555
:1032A000882309F4C2C02A2D229526952770220F63
:1032B000220F8A2D8F70C82ED12CE12CF12C022EDA
:1032C00004C0CC0CDD1CEE1CFF1C0A94D2F7A4FE3B
:1032D00010C06FE070E080E090E004C0660F771FE0
:1032E000881F991F2A95D2F76095709580959095C3
:1032F00003C060E070E0CB01242F26952695237053
:1033000030E02230310569F02330310589F06C2935
:103310007D298E299F292130310571F00E94461F99
:1033200084C06C297D298E299F290E94581F7DC049
:103330000E94461FC701B6010E94341F76C00A2DA5
:1033400010E0F801E05EF109E531F10508F052C046
:10335000E956FF4F0C9499291A2D1F70842F8F71F5
:10336000FF2021F00E94DF1E812F19CF0E94FA1E3C
:10337000812F0E941F1859C0FF2049F0F4E0FE156C
:1033800008F453C0842F8F710E94191F4EC085E02E
:103390008E1508F44AC0F6CFFF2039F0842F8F71C4
:1033A0000E94DF1E42C0FF20C9F3842F8F710E944C
:1033B000FA1E3BC0FF2029F0842F8F710E94D01E7F
:1033C00034C00E94CB1E31C0FF2051F0142F1F715A
:1033D000812F0E94DF1E63E0812F0E94C41F25C041
:1033E00081E00E94CD1F91E09E15F8F482E00E94DA
:1033F000CD1F1BC0FF2031F0EE2081F28A2D0E94EC
:10340000011713C0EE2089F28A2D0E94C9170DC042
:103410004F706A2DC4010E946D120E94F61D05C0F6
:103420004F706A2DC4010E94A510BB20F1F00E94CC
:10343000C01F80FD1AC0F40112820E94BA1F0E94B0
:10344000DF1EC4010E94431A0E94BA1F0F90DF9131
:10345000CF911F910F91FF90EF90DF90CF90BF9091
:10346000AF909F908F900C94FA1E0F90DF91CF91A8
:103470001F910F91FF90EF90DF90CF90BF90AF9092
:103480009F908F9008950F931F93CF93DF93EC013C
:10349000288139818B819C81892B31F03F3F11F04C
:1034A00080E003C02F3FE1F781E0811113C0CE011E
:1034B0000E94EF10882371F0688179818A810E94CF
:1034C000B61F8C010E946A1F0E94851EB801CE01A2
:1034D0000E942618DF91CF911F910F9108950E94AD
:1034E00089200E9499200E945E200E94B52080E0E1
:1034F00090E00E94E71580E090E00C94FD150E949A
:1035000079200C946F1A0E94AB1FE92FE295EF709F
:10351000F0E03297EE30F105B8F4E455FF4F0C942B
:103520009929803F59F018F4803E70F407C0843F19
:1035300059F404C0803E10F0813F31F481E00895D9
:1035400093FB882780F9089580E00895CF93DF9357
:1035500000D000D01F92CDB7DEB70F900F900F9024
:103560000F900F90DF91CF910895CF93DF9300D00C
:1035700000D000D0CDB7DEB726960FB6F894DEBFE8
:103580000FBECDBFDF91CF9108951F93CF93DF93EF
:10359000C091380216E080913902C81799F0D0E046
:1035A0001C9FF0011D9FF00D1124E65CFD4F408132
:1035B000518162817381848195810E94B51A21961F
:1035C000C770E9CFDF91CF911F91089540916A02B2
:1035D00050916B0260916C0270916D0280916E024D
:1035E00090916F020C94B51ACF9380916F028295DF
:1035F0008F7009F05FC080916C02882309F45AC073
:1036000020913802A091390260916A0270916B0298
:1036100080916D0290916E0231E06F3F09F030E0D1
:10362000B32FC6E02A1709F445C0009721F07F3F69
:1036300021F44B2F03C041E001C040E030E040FDE9
:1036400035C0C29FF001C39FF00D1124E65CFD4F11
:10365000418174132BC04081641328C04281411101
:1036600025C0438154814817590710F4415051092E
:10367000481B590B483C5105C8F480916F028F706C
:10368000806180936F0286E0829FF001839FF00D3E
:103690001124E15CFD4F80818F70806180838AE618
:1036A00092E00E94431ACF910C94C51A2F5F3F4FAE
:1036B0002770B8CFCF910895CF92DF92EF92FF920B
:1036C0000F931F93CF93DF93CDB7DEB762970FB6FB
:1036D000F894DEBF0FBECDBF8C0185E0F801DE019E
:1036E0001D9601900D928A95E1F7D8014C911196A3
:1036F0005C91119712966C9112971396ED90FC9035
:10370000149770916A02E0916B0220916D023091E2
:103710006E022115310531F0EF3F31F481E07F3F3A
:1037200019F403C081E001C080E0B82FB170CB2E46
:1037300080FD6CC1D0906C02DD2009F4F5C0F091E1
:103740006F02E216F30638F0C701821B930B883C28
:10375000910548F09BC0209530952E0D3F1D283CCB
:10376000310508F093C08F2F807F09F052C0E51318
:1037700014C0741312C0D62E61110FC0FF70F06117
:10378000F0936F020E94E61A8AE692E00E94431AC2
:1037900080916F02F80185836CC1EF2831F05F3FA3
:1037A00031F481E04F3F19F403C081E001C080E0B3
:1037B00080FD03C081E0862701C080E0F82FF17012
:1037C000FF2E80FF1CC0809138022091390236E024
:1037D000821709F428C190E0389FF001399FF00D5D
:1037E0001124E65CFD4F7181571306C070814713A9
:1037F00003C07281671303C001968770E9CFD62E8C
:10380000662309F436C180916F02816080936F0254
:1038100053C0E51308C0741306C0611104C0D80179
:103820001596FC93AEC04D875E878D859E856A8B0D
:103830000E94831A6A89882329F1D62E662311F102
:1038400020916F02822F82958F7090E002970CF486
:1038500060C080916A0290916B0298878F8319866D
:10386000FB86EA862C87CE01079651C0E51731F119
:103870004D875E878D859E856A8B0E94831A6A8933
:1038800081112EC0C8010E94431AA4C08F2F807FCF
:1038900069F77E2DF98AE88A89890E94A61A8AE644
:1038A00092E00E94431AEAE6F2E086E0DF011D9210
:1038B0008A95E9F70E94E61AD12CDBC07413D8CFA1
:1038C0006111D6CFD8011596FC93C8010E94431A06
:1038D000EAE6F2E086E0DF011D928A95E9F7C9C0C9
:1038E000D62E662379F220916F02822F82958F70F7
:1038F00090E0029774F080916A0290916B029A8333
:1039000089831B82FD82EC822E83CE0101960E9468
:10391000431A86E0F801AAE6B2E001900D928A957A
:10392000E1F70E94F41A6FC0E216F30628F0C7010F
:10393000821B930B9C0104C0209530952E0D3F1DDA
:10394000283C310508F052C0D62E662309F49ACFE0
:10395000E5132CC074132AC080916F0280FD1DC036
:10396000982F92959F70C9F0D80115968C93159752
:103970009F3039F09F5F9295907F8F70892B1596BD
:103980008C93C8010E94431A86E0F801AAE6B2E0CF
:1039900001900D928A95E1F736C086E0F801AAE61B
:1039A000B2E001900D928A95E1F763C04D875E8782
:1039B0008D859E850E94831A882379F086E0F80120
:1039C000AAE6B2E001900D928A95E1F70E94F41AFE
:1039D0000E94E61ADD24D3944CC080916F0281606E
:1039E00080936F02C8010E94431A43C07E2DF98A5A
:1039F000E88A89890E94A61AEAE6F2E086E0DF01F9
:103A00001D928A95E9F70E94E61A33C0662309F4ED
:103A100039CF4D875E878D859E850E94831A8823C6
:103A200009F430CFCBCF4D875E878D859E850E9470
:103A3000AB1F292F22952F7030E0223031052CF456
:103A40009F7041F0811106C00CC0243031052CF468
:103A50009F7049F4805E883020F0C8010E94431AAC
:103A6000CF2CDC2C06C0D80115969C91907F91F745
:103A7000F8CF8D2D62960FB6F894DEBF0FBECDBF86
:103A8000DF91CF911F910F91FF90EF90DF90CF903A
:103A900008951F93CF93DF93CDB7DEB72C970FB662
:103AA000F894DEBF0FBECDBF4F83588769877A87F2
:103AB0008B879C87CE0107960E945C1B8823C1F0F0
:103AC0002F8138858A859B85892B31F03F3F11F006
:103AD00080E003C02F3FE1F781E0811147C04F81B3
:103AE000588569857A858B859C850E94B51A3EC06C
:103AF00086E0FE013796DE01119601900D928A95BF
:103B0000E1F7FF81E8854A855B854115510531F074
:103B1000EF3F31F481E0FF3F19F403C081E001C0C1
:103B200080E080FD23C02091390230E0C901019678
:103B3000877099276091380270E086179707F1F136
:103B4000F983EA835D834C8396E0929FD001939F33
:103B5000B00D1124A65CBD4FFE01319601900D926F
:103B60009A95E1F7809339020E94C51A16E0809178
:103B7000380290913902891779F1189FC0011124F8
:103B8000865C9D4F0E945C1B882331F1E0913802D6
:103B90001E9FF0011124E65CFD4F4081518162813E
:103BA0007381848195810E94B51A8091380290E0DA
:103BB00001968770992780933802D9CF0E947F1A87
:103BC0001092390210923802EAE6F2E086E0DF0154
:103BD0001D928A95E9F7CACF2C960FB6F894DEBFEE
:103BE0000FBECDBFDF91CF911F910895EF92FF924D
:103BF0000F931F93CF93DF939C01009709F471C03B
:103C0000F12CEE24E394E9012196F90184918437A3
:103C100040F4843008F056C0813081F0823021F1C8
:103C200060C0853709F449C0C0F19CE7980F903710
:103C300008F057C08F770E94C91746C089010E5FF0
:103C40001F4FFE01849190E2980F983050F48770D6
:103C5000FE2D01C0FF0F8A95EAF78F2F0E948C205E
:103C600015C00E94011714C089010E5F1F4FFE018D
:103C7000849190E2980F983068F48770FE2D01C00F
:103C8000FF0F8A95EAF78F2F0E9492200E94B5209D
:103C9000E8011AC00E94C917FBCF2E5F3F4FFE01FB
:103CA000C491CC2341F08FE99FE00197F1F700C068
:103CB0000000C150F6CFE90107C0FE01F490E90110
:103CC000229602C00E9401178F2D882341F0EFE950
:103CD000FFE03197F1F700C000008150F6CF9E0160
:103CE00092CFDF91CF911F910F91FF90EF900895A8
:103CF00008950E94781E60937402709375028093F9
:103D00007602909377020C946F1A08950C94791EA2
:103D10000F931F9300917402109175022091760207
:103D200030917702602B712B822B932B1F910F9177
:103D30000C94791E0F931F930091740210917502D9
:103D4000209176023091770260237123822393239E
:103D50001F910F910C94791E0F931F930091740281
:103D600010917502209176023091770260277127B9
:103D7000822793271F910F910C94791E08950E941A
:103D8000BE1E6093700270937102809372029093D2
:103D900073020C946F1A60E070E0CB010C94BF1EAC
:103DA00041E050E060E070E004C0440F551F661F22
:103DB000771F8A95D2F7CB01BA010C94BF1E41E060
:103DC00050E060E070E004C0440F551F661F771F8D
:103DD0008A95D2F78091700290917102A09172023F
:103DE000B0917302482B592B6A2B7B2BCB01BA0164
:103DF0000C94BF1E41E050E060E070E004C0440F4E
:103E0000551F661F771F8A95D2F74095509560958C
:103E100070958091700290917102A0917202B091A0
:103E20007302482359236A237B23CB01BA010C94E4
:103E3000BF1E41E050E060E070E004C0440F551F39
:103E4000661F771F8A95D2F7809170029091710258
:103E5000A0917202B0917302482759276A277B27E5
:103E6000CB01BA010C94BF1E0F931F9300917002F7
:103E7000109171022091720230917302602B712BAC
:103E8000822B932B1F910F910C94BF1E0F931F93A6
:103E900000917002109171022091720230917302B0
:103EA00060237123822393231F910F910C94BF1ED3
:103EB0000F931F9300917002109171022091720272
:103EC0003091730260277127822793271F910F91EA
:103ED0000C94BF1E0895CF92DF92EF92FF920F9342
:103EE0001F93CF93DF93EC01C0907402D0907502C2
:103EF000E0907602F09077028091700290917102CA
:103F0000A0917202B0917302C82AD92AEA2AFB2A28
:103F10000FE110E0B701A601002E04C07695679569
:103F2000579547950A94D2F740FD05C001501109F5
:103F300088F780E007C0BE01802F0E9470120197B1
:103F4000A9F3802FDF91CF911F910F91FF90EF90F8
:103F5000DF90CF900895CF93DF93EC010E946B1F09
:103F6000BE010E947012DF91CF910895CB010E9493
:103F7000AB1F089580917802859585958595089564
:103F8000809178028770089598E0899F90011124AC
:103F9000622B609378020C94DF1E4091780280952A
:103FA000842380937802982F977069F450E0282F2B
:103FB000332727FD30954217530729F085958595BE
:103FC00085950C94FA1E089590917802977081E07F
:103FD00009F480E00895909135019923D9F09091EA
:103FE000740497FF17C0982F9695969596959F31D4
:103FF00088F5E0912901F0912A01E90FF11D877000
:1040000021E030E001C0220F8A95EAF78181822BFE
:10401000818308954091290150912A0120E030E0E8
:104020009FEFFA01E20FF31F6281681799F09F3F3B
:1040300019F4611101C0922F2F5F3F4F2E313105CE
:1040400081F79F3F39F0FA01E90FF11D97FDFA95CD
:10405000828308950895909135019923E1F090911C
:10406000740497FF18C0982F9695969596959F3152
:1040700020F5E0912901F0912A01E90FF11D8770E7
:1040800021E030E001C0220F8A95EAF72095818176
:104090002823218308954091290150912A0120E08D
:1040A00030E0FA01E20FF31F9281981301C01282EF
:1040B0002F5F3F4F2E313105A1F7089581E090E049
:1040C000E0912901F0912A01E80FF91F1082019671
:1040D00080329105A9F7089590919C02982B9093B6
:1040E0009C020895809590919C02982390939C0245
:1040F000089510929C02089590919B02982B9093A2
:104100009B020895809590919B02982390939B0227
:10411000089510929B02089590919A02982B909383
:104120009A020895809590919A02982390939A020A
:10413000089510929A02089580937902089510923A
:10414000790208954091290150912A0120E030E040
:1041500080E0FA01E20FF31F918191118F5F2F5FD1
:104160003F4F2F313105A9F70895E0912901F091D2
:104170002A0180919C028083E0912901F0912A011B
:10418000808190919B02892B8083E0912901F0919D
:104190002A01808190919A02892B808390917902E3
:1041A000992361F0E0912901F0912A018081892B06
:1041B00080830E94A22081111092790280912901AE
:1041C00090912A010C94DC156DEE7EEF80E090E07A
:1041D0000E943D2A60E082E090E00E942B2A60E08D
:1041E00083E090E00E942B2A60E084E090E00E944F
:1041F0002B2A60E085E090E00C942B2A6FEF7FEF94
:1042000080E090E00C943D2A80E090E00E94152A26
:1042100021E08D3E9E4F09F020E0822F089582E03C
:1042200090E00C940D2A83E090E00C940D2A84E039
:1042300090E00C940D2A682F84E090E00C942B2AD7
:104240000C94D81008950895CF930E9422210E94C3
:1042500015150E942321C0E08C2F0E94C115892BC7
:1042600029F4CF5FC530C1F780E001C081E0CF9174
:1042700008950E94DB100E947F1A0E94D0150C94B2
:104280006B1282E084BD93E095BD9AEF97BD809359
:104290006E0008952FB7F894809170049091710486
:1042A000A0917204B09173042FBF0895CF92DF9252
:1042B000EF92FF920F931F932FB7F89440917004E1
:1042C0005091710460917204709173042FBF6A0160
:1042D0007B01EE24FF248C0120E030E0C016D106E3
:1042E000E206F30610F441505109481B590BCA016C
:1042F0001F910F91FF90EF90DF90CF9008957894E9
:104300001F920F920FB60F9211248F939F93AF932A
:10431000BF938091700490917104A0917204B09148
:1043200073040196A11DB11D8093700490937104D4
:10433000A0937204B0937304BF91AF919F918F913A
:104340000F900FBE0F901F9018950E947C26F89436
:104350002FEF87EA91E6215080409040E1F700C0BE
:10436000000087E090EBDC01809383049093840449
:10437000A0938504B09386042CE088E190E00FB60A
:10438000F894A895809360000FBE20936000FFCF43
:104390000E940421811102C00E94E4200E940F218A
:1043A00080939D020E94172190E090937504809362
:1043B00074040E941321682F70E080E090E00C9458
:1043C000861E8091BE02089508950F931F93CF9388
:1043D000DF9300D01F92CDB7DEB78C010E948424FA
:1043E000823011F0843021F583E089831B830A83B6
:1043F00082E08093E9008FEF9091E800815095FD75
:1044000006C095ED9A95F1F700008111F5CF8091E6
:10441000E80085FF0DC040E050E063E070E0CE01B1
:1044200001960E94A1248091E8008E778093E80095
:104430000F900F900F90DF91CF911F910F910895E2
:10444000CF93DF9300D01F92CDB7DEB720917A04CF
:10445000243029F522E02983805891099B838A839F
:104460002093E9008FEF9091E800815095FD06C000
:1044700095ED9A95F1F700008111F5CF8091E80054
:1044800085FF0DC040E050E063E070E0CE01019692
:104490000E94A1248091E8008E778093E8000F901D
:1044A0000F900F90DF91CF910895CF93DF93EC01A0
:1044B0000E948424823019F0843009F047C0809132
:1044C00035018823E1F08091740487FF18C085E0EE
:1044D0008093E9008FEF9091E800815095FD06C030
:1044E00095E19A95F1F700008111F5CF8091E800F0
:1044F00085FF2CC040E050E060E270E017C081E032
:104500008093E9008FEF9091E800815095FD06C0FF
:1045100095ED9A95F1F700008111F5CF8091E800B3
:1045200085FF14C040E050E068E070E0CE010E94DA
:10453000A1248091E8008E778093E80080E2FE015C
:10454000AEE9B2E001900D928A95E1F7DF91CF914B
:104550000895CF93603229F520917A04243009F52B
:104560002091E9002F703091EC0030FF02C030E85C
:1045700001C030E0C32FC22B23E02093E90020913B
:10458000E80020FF0BC040E050E060E270E00E94D5
:10459000A1248091E8008E778093E800CF70C093CB
:1045A000E900CF91089580917904811109C00E949A
:1045B0007C260E94D9268091E20084608093E200EC
:1045C0000895109279040895089508950C9439215E
:1045D00042E061EC81E00E94F62542E061EC82E07D
:1045E0000E94F62542E261EC83E00E94F62542E259
:1045F00060EC84E00E94F62542E261EC85E00C94D8
:10460000F62580917C04833009F455C030F4813064
:1046100071F0823009F48EC008958A3009F47AC0AE
:104620008B3009F460C0893009F09CC020C08091B3
:104630007B04813A09F096C08091E800877F8093DF
:10464000E80080917F0490918004892B21F060E044
:1046500080E090E003C060E28EE992E070E00E94AA
:1046600033258091E8008B778093E800089580914E
:104670007B04813209F076C080917F0490918004A0
:10468000009719F0039709F06DC08091E800877FCB
:104690008093E8008091E80082FD05C080917A0453
:1046A0008111F8CF5FC08091F1008093BE028091AC
:1046B000E8008B7753C080917B04813A09F052C0A7
:1046C00080917F0490918004892B09F04BC08091E8
:1046D000E800877F8093E8008091E80080FFFCCFAE
:1046E0008091350136C080917B048132D9F580916B
:1046F0007F0490918004892BA9F58091E800877F41
:104700008093E8000E942B2680917D0480933501E0
:104710000C947F1A80917B04813221F58091E8000E
:10472000877F8093E8000E942B2680917E048093EF
:10473000BF02089580917B04813AA1F48091E80042
:10474000877F8093E8008091E80080FFFCCF809114
:10475000BF028093F1008091E8008E778093E8009B
:104760000C942B260895CF93DF93CDB7DEB7A09797
:104770000FB6F894DEBF0FBECDBF84B7877F84BF6E
:1047800088E10FB6F89480936000109260000FBE2D
:1047900080E880936100109261000E9414160E94CC
:1047A0007C260E94D9268091E20084608093E200FA
:1047B00078940E9454290E9416168BE291E00E9480
:1047C000CB1580917A04853069F40E942021809174
:1047D00078048823B1F30E942421882391F30E9456
:1047E0008B24EFCF0E941C1680917A04843049F705
:1047F0008093E9008091E80082FFE3CF8091E80098
:1048000085FF0AC040E050E060E270E0CE01019612
:104810000E94EA2491E001C090E08091E8008B774B
:104820008093E800992369F260E2CE0101960E942C
:10483000690FC7CF292F332723303105A9F06CF436
:104840002130310509F442C02230310509F043C05E
:1048500084E790E02EE136E042C021323105C9F014
:104860002232310519F137C099278130910541F085
:104870008230910541F0892B71F5EAE1F6E005C03F
:10488000EAE0F6E002C0EAEFF5E0849190E09F01F3
:1048900026C0643000F5E62FF0E0EE0FFF1FEF5367
:1048A000FE4F2081318189E090E019C0643098F496
:1048B000E62FF0E0DF01AA0FBB1FA754BE4F2D91DA
:1048C0003C91EB54FE4F808190E009C082E190E082
:1048D00022E936E004C080E090E020E030E0FA0118
:1048E0003183208308950895CF93C82F0E947324A5
:1048F000C093C002CF91089580917A04843011F45E
:1049000082E0089581E008958091C002811102C083
:104910000C947C24089580E189BD82E189BD09B4AD
:1049200000FEFDCF8091D8008F7D8093D8008091CC
:10493000E00082608093E0008091E00081FDFCCF88
:104940000895CF92DF92EF92FF920F931F93CF9330
:10495000DF937C018B01EA010E944C26811131C05A
:10496000209731F088819981081B190BE80EF91EF8
:10497000C12CD12C0115110519F18091E80085FD9C
:1049800014C08091E8008E778093E800209741F072
:10499000888199818C0D9D1D9983888385E011C044
:1049A0000E944C26882331F30CC0F70181917F01CE
:1049B0008093F10001501109FFEFCF1ADF0ADACF1F
:1049C00080E0DF91CF911F910F91FF90EF90DF90EA
:1049D000CF900895CF92DF92EF92FF920F931F93A3
:1049E000CF93DF937C018B01EA010E944C26811159
:1049F00031C0209731F088819981081B190BE80E8E
:104A0000F91EC12CD12C0115110519F18091E80076
:104A100085FD14C08091E8008B778093E800209793
:104A200041F0888199818C0D9D1D9983888385E053
:104A300011C00E944C26882331F30CC08091F100F4
:104A4000F70181937F0101501109FFEFCF1ADF0AAF
:104A5000DACF80E0DF91CF911F910F91FF90EF901F
:104A6000DF90CF9008952091810430918204261721
:104A7000370748F06115710539F42091E8002E7769
:104A80002093E80001C0B901FC0120E06115710527
:104A9000B9F180917A04882309F440C0853009F483
:104AA0003FC08091E80083FD3DC08091E80082FF17
:104AB00006C08091E80082FF26C080E008958091C2
:104AC000E80080FFE3CF2091F3008091F20090E0B6
:104AD000922B6115710551F08830910538F42191C0
:104AE0002093F100615071090196F3CF21E00897FE
:104AF00009F020E08091E8008E778093E800C6CF2F
:104B00002111C7CFD6CF80917A04882339F0853020
:104B100039F08091E80083FFCCCF04C082E0089593
:104B200083E0089581E0089520918104309182040A
:104B30002617370748F06115710539F42091E80010
:104B40002E772093E80001C0B901FC0120E0611537
:104B50007105C1F180917A04882309F441C0853040
:104B600009F440C08091E80083FD3EC08091E800D8
:104B700082FF06C08091E80082FF27C080E0089590
:104B80008091E80080FFE3CF2091F3008091F20054
:104B900090E0922B6115710559F08830910540F431
:104BA00024912093F1003196615071090196F2CF62
:104BB00021E0089709F020E08091E8008E7780934B
:104BC000E800C5CF2111C6CFD5CF80917A048823C4
:104BD00039F0853039F08091E80083FFCBCF04C0F5
:104BE00082E0089583E0089581E00895982F97303A
:104BF00058F59093E900981739F07091EC002091E6
:104C0000ED005091F00003C0242F762F50E021FFDB
:104C100019C03091EB003E7F3093EB003091ED00F6
:104C20003D7F3093ED003091EB0031603093EB002D
:104C30007093EC002093ED005093F0002091EE0073
:104C400027FF07C09F5FD3CF8F708093E90081E07B
:104C5000089580E0089580917B0487FD05C08091D0
:104C6000E80080FF0EC012C08091E80082FD05C000
:104C700080917A048111F8CF08958091E8008B77B4
:104C800008C080917A048111EACF08958091E800EC
:104C90008E778093E80008958091E4009091E5007C
:104CA00045E62091EC0020FF21C02091E80020FD86
:104CB00021C020917A04222389F0253089F02091A7
:104CC000EB0025FD0FC02091E4003091E50028178E
:104CD000390739F3415041F0C901E3CF82E008952B
:104CE00083E0089581E0089584E008952091E8002C
:104CF00022FFDFCF80E008950E94EA260E94F2267C
:104D0000E0EEF0E0808181608083E8EDF0E080817A
:104D10008F77808319BCA7EDB0E08C918E7F8C9348
:104D200080818F7E80831092790408950F931F9362
:104D3000CF93DF930E94EA260E94F226C8EDD0E0CE
:104D400088818F77888388818068888388818F7D38
:104D5000888319BC10927A04109276041092780419
:104D60001092770400EE10E0F80180818B7F808341
:104D700088818160888342E060E080E00E94F625BF
:104D8000E1EEF0E080818E7F8083E2EEF0E08081D2
:104D900081608083808188608083F80180818E7F3C
:104DA0008083888180618883DF91CF911F910F91EB
:104DB0000895E8EDF0E080818F7E8083E7EDF0E0FC
:104DC00080818160808384E082BF81E08093790468
:104DD0000C949626E8EDF0E080818E7F808310921F
:104DE000E20008951092DA001092E10008951F92F7
:104DF0000F920FB60F9211242F933F934F935F930F
:104E00006F937F938F939F93AF93BF93EF93FF9392
:104E10008091E10082FF0BC08091E20082FF07C019
:104E20008091E1008B7F8093E1000E945329809163
:104E3000DA0080FF1FC08091D80080FF1BC08091E6
:104E4000DA008E7F8093DA008091D90080FF0DC058
:104E500080E189BD82E189BD09B400FEFDCF81E01A
:104E600080937A040E94D32205C019BC10927A0460
:104E70000E94E1228091E10080FF19C08091E20050
:104E800080FF15C08091E2008E7F8093E2008091C8
:104E9000E20080618093E2008091D800806280937C
:104EA000D80019BC85E080937A040E94E5228091A5
:104EB000E10084FF30C08091E20084FF2CC080E1DB
:104EC00089BD82E189BD09B400FEFDCF8091D80083
:104ED0008F7D8093D8008091E1008F7E8093E100E8
:104EE0008091E2008F7E8093E2008091E2008160F9
:104EF0008093E20080917604882311F084E007C05B
:104F00008091E30087FF02C083E001C081E08093CD
:104F10007A040E94E6228091E10083FF29C08091FB
:104F2000E20083FF25C08091E100877F8093E1004C
:104F300082E080937A04109276048091E1008E7F63
:104F40008093E1008091E2008E7F8093E200809167
:104F5000E20080618093E20042E060E080E00E9435
:104F6000F6258091F00088608093F0000E94E42292
:104F7000FF91EF91BF91AF919F918F917F916F9131
:104F80005F914F913F912F910F900FBE0F901F9007
:104F900018951F920F920FB60F9211242F933F93E3
:104FA0004F935F936F937F938F939F93AF93BF9331
:104FB000CF93EF93FF93C091E900CF708091EC0005
:104FC0001092E9008091F000877F8093F000789440
:104FD0000E9405281092E9008091F000886080937B
:104FE000F000C093E900FF91EF91CF91BF91AF9195
:104FF0009F918F917F916F915F914F913F912F91F1
:105000000F900FBE0F901F9018951F93CF93DF93B3
:10501000CDB7DEB7AA970FB6F894DEBF0FBECDBFEF
:10502000EBE7F4E08091F100819324E0E338F207AC
:10503000C9F70E9401238091E80083FF1CC12091E1
:105040007B0430917C04832F90E08A30910508F036
:1050500012C1FC01E654FF4F0C949929203881F0CD
:10506000223809F008C180917F048F708093E90095
:105070008091EB0085FB882780F91092E90006C03B
:105080008091770490917804911182609091E8006A
:10509000977F9093E8008093F1001092F100C5C0D3
:1050A000822F8D7F09F0E7C0222319F0223061F0B2
:1050B000E2C080917D04813009F0DDC0333009F019
:1050C00080E08093780428C080917D04811124C001
:1050D00020917F042F7009F4CEC02093E9008091C5
:1050E000EB0080FF19C08091EB00333011F4806237
:1050F00011C080618093EB0081E090E0022E01C03E
:10510000880F0A94EAF78093EA001092EA008091EF
:10511000EB0088608093EB001092E9008091E8003A
:10512000877F86C02111A7C010917D041F778091D1
:10513000E3008078812B8093E3008091E800877FF3
:105140008093E8000E942B268091E80080FFFCCF2E
:105150008091E30080688093E300112311F083E0E5
:1051600001C082E080937A0486C02058223008F083
:1051700082C080917D0490917E048C3D23E0920753
:1051800079F583E08A838AE289834FB7F894DE0158
:10519000139620E03EE051E2E32FF0E050935700F9
:1051A000E49120FF03C0E295EF703F5FEF708E2F18
:1051B00090E0EA3010F0C79601C0C0968D939D93A1
:1051C0002F5F243149F74FBF8091E800877F80939C
:1051D000E8006AE270E0CE0101960E94332514C017
:1051E000AE014F5F5F4F60917F040E941A240097C9
:1051F00009F441C02091E800277F2093E800BC011A
:1052000089819A810E9494258091E8008B77809310
:10521000E80031C0203879F58091E800877F8093DD
:10522000E800809176048093F1008091E8008E7709
:105230008093E8000E942B261EC021111CC0909173
:105240007D049230C0F48091E800877F8093E8006D
:10525000909376040E942B2680917604811104C0DD
:105260008091E30087FF02C084E001C081E0809369
:105270007A040E94E8228091E80083FF0AC08091AE
:10528000E800877F8093E8008091EB008062809344
:10529000EB00AA960FB6F894DEBF0FBECDBFDF912C
:1052A000CF911F9108950895CF9380917A04882318
:1052B000B1F08091E9008F709091EC0090FF02C0F6
:1052C00090E801C090E0C92FC82B1092E9008091AE
:1052D000E80083FD0E940528CF70C093E900CF91BC
:1052E0000895AA1BBB1B51E107C0AA1FBB1FA6172D
:1052F000B70710F0A61BB70B881F991F5A95A9F77F
:1053000080959095BC01CD01089597FB072E16F46A
:10531000009407D077FD09D00E94712907FC05D0C1
:105320003EF4909581959F4F0895709561957F4FBC
:105330000895EE0FFF1F0590F491E02D09948F92D0
:105340009F92AF92BF92CF92DF92EF92FF92CF9354
:10535000DF93EC01688179818A819B8161157105F8
:105360008105910521F464E279ED8BE597E02DE16B
:1053700033EF41E050E00E94562A49015A019B0157
:10538000AC01A7EAB1E40E94432A6B017C01ACEEB8
:10539000B4EFA50194010E94512AC60ED71EE81E43
:1053A000F91EF7FE06C081E0C81AD108E10880E8BE
:1053B000F80AC882D982EA82FB82C6019F77DF9110
:1053C000CF91FF90EF90DF90CF90BF90AF909F90E4
:1053D0008F9008950E949F29089580E091E00E9497
:1053E0009F290895A0E0B0E080930001909301010F
:1053F000A0930201B09303010895DC01CB01FC01ED
:10540000F999FECF06C0F2BDE1BDF89A319600B41D
:105410000D9241505040B8F70895F999FECF92BDD2
:1054200081BDF89A992780B50895A8E1B0E042E0DF
:1054300050E00C94FF29DC01A40FB51F41505040EF
:1054400048F0CB01840F951F2E910E942C2A4150C9
:105450005040D0F70895262FF999FECF92BD81BD17
:10546000F89A019700B4021639F01FBA20BD0FB6A2
:10547000F894FA9AF99A0FBE08950196272F0E9480
:105480002C2A0C942B2A0E94752AA59F900DB49F5C
:10549000900DA49F800D911D11240895B7FF0C94C9
:1054A000432A0E94432A821B930B0895052E97FBE3
:1054B0001EF400940E946D2A57FD07D00E94842A92
:1054C00007FC03D04EF40C946D2A5095409530950E
:1054D00021953F4F4F4F5F4F089590958095709560
:1054E00061957F4F8F4F9F4F0895A29FB001B39F4B
:1054F000C001A39F700D811D1124911DB29F700DDD
:10550000811D1124911D0895A1E21A2EAA1BBB1B17
:10551000FD010DC0AA1FBB1FEE1FFF1FA217B3077F
:10552000E407F50720F0A21BB30BE40BF50B661F95
:10553000771F881F991F1A9469F760957095809559
:1055400090959B01AC01BD01CF010895F894FFCF68
:1055500001000000FF0000FFFF00FFFF7FFFFF00D2
:1055600000FFFF0000FFFF0000FFFF0000FFFF0142
:1055700020010001100130073C7A02E1215522E4AC
:10558000212022E5210102000400060000000401A0
:1055900006010001020106020002020204020003E9
:1055A00002030403000402040404000502050405C8
:1055B00000060206040600070207040710000E009A
:1055C0000C0010010E010C0110020E020C0210035F
:1055D0000E030C0310040E040C0410050E050C053C
:1055E00010060E060A0510070C060A060E070C0721
:1055F0000A07F595313233939267663635349796BC
:10560000F0F1F4F6F7403622393507FF06DD06A43F
:0A5610000630064906620682060015
:00000001FF
